:060000000A128A110C280F
:10000800FE00030EF0000A08F1000A168A112E2CD1
:100018000A128A110F288313C230FD001330FE0024
:100028009A30FF00A03084000A168A1156230A125B
:100038008A110A128A11FF270A128A11ED000A167C
:100048008A1125230A128A11F9000A168A11262311
:100058000A128A11FA000A168A1127230A128A112B
:10006800FB00C2308400DB300A168A112E230A12E4
:100078008A11E901EA01EB01EC0183010A128A15F0
:100088004B2A83120313E4000A168A11E2250A1286
:100098008A1133307B06031D52285328862A0A16F4
:1000A8008A1141230A128A116E3083120313A000A9
:1000B8009130A1008030A2000A128A11BE270A12CC
:1000C8008A11831203136A08E0006007A03E8400C7
:1000D80083130008A000840A00088403A100863066
:1000E800A2000A128A11BE270A128A1169308312E5
:1000F8000313A0009130A100C030A2000A128A1197
:10010800BE270A128A11C630F8000A30F200003001
:10011800F300831203136B08E000E1016008F400A8
:100128006108F5000A168A117D250A128A117208DB
:10013800303E0A168A1165230A128A11C730F80060
:100148000A30F2000030F300831203136B08E0005A
:10015800E1016008F4006108F5000A168A112625F5
:100168000A128A117208303E0A168A1165230A1289
:100178008A11C830F8003A300A168A1165230A1223
:100188008A11C930F8000A30F2000030F3008312F7
:1001980003136C08E000E1016008F4006108F50051
:1001A8000A168A117D250A128A117208303E0A162B
:1001B8008A1165230A128A11CA30F8000A30F2003F
:1001C8000030F300831203136C08E000E1016008BB
:1001D800F4006108F5000A168A1126250A128A1108
:1001E8007208303E0A168A1165230A128A11FF30F6
:1001F800FB00333083120313E200BB30E100DF3031
:10020800E000E00B0529E10B0529E20B05290A1698
:100218008A1141230A128A11D63083120313A000CF
:100228009030A1008030A2000A128A11BE270A125B
:100238008A11693083120313A0009130A100C030E5
:10024800A2000A128A11BE270A128A11EA30831202
:100258000313A0009030A1009030A2000A128A1166
:10026800BE270A128A11E03083120313A0009030CF
:10027800A100D030A2000A128A11BE270A128A11E0
:100288003C30F4000030F500831203136B08E000E3
:10029800E1016008F2006108F3000A168A11E02300
:1002A8000A128A11831203136C087207E2000030E5
:1002B800031801307307E3006208A4006308A5006F
:1002C8000030A51BFF30A600A70001300A128A15CE
:1002D80092200A128A118312031327088316031324
:1002E800C50083120313260883160313C400831260
:1002F8000313250883160313C3008312031324086A
:1003080083160313C2004508D5004408D4004308E7
:10031800D3004208D2003E3083120313B500EB30FD
:10032800B4008530B3001F30B2008316031355089C
:10033800F5005408F4005308F3005208F2000A12BA
:100348008A151C200A128A11720883120313A4004A
:100358007308A5000030A51BFF30A600A7000130D8
:100368000A128A1592200A128A1183120313270887
:10037800B9002608B8002508B7002408B6000A12F4
:100388008A15BE240A128A118312031335088316AC
:100398000313D10083120313340883160313D00008
:1003A80083120313330883160313CF008312031336
:1003B800320883160313CE003D3083120313B500B1
:1003C800F530B400C230B3008F30B2008316031387
:1003D8005508F5005408F4005308F3005208F200D9
:1003E8000A128A151C200A128A1172088312031332
:1003F800A4007308A5000030A51BFF30A600A700C5
:1004080001300A128A1592200A128A1183120313E4
:100418002708B9002608B8002508B7002408B60040
:100428000A128A15BE240A128A1183120313350888
:1004380083160313CD0083120313340883160313A2
:10044800CC0083120313330883160313CB008312E3
:100458000313320883160313CA003E3083120313B2
:10046800B500D730B4000A30B3003D30B20083166F
:1004780003135508F5005408F4005308F300520814
:10048800F2000A128A151C200A128A1172088312B5
:100498000313A4007308A5000030A51BFF30A600B5
:1004A800A70001300A128A1592200A128A118312B3
:1004B80003132708B9002608B8002508B700240840
:1004C800B6000A128A15BE240A128A11831203136F
:1004D800350883160313C9008312031334088316DF
:1004E8000313C80083120313330883160313C700CA
:1004F80083120313320883160313C60083120313EF
:10050800121507151F30831203136406031D8D2A65
:100518008E2A922A071112114430ED003C30F40063
:100528000030F5006B08E000E1016008F2006108A6
:10053800F3000A168A11E0230A128A1183120313A0
:100548006C087207E2000030031801307307E300FB
:100558006208A4006308A5000030A51BFF30A600B0
:10056800A70001300A128A1592200A128A118312F2
:100578000313270883160313D500831203132608D1
:1005880083160313D4008312031325088316031359
:10059800D30083120313240883160313D2000830F0
:1005A800831203136A020318DA2ADB2AF42B831650
:1005B8000313550883120313D70083160313540833
:1005C80083120313D60083160313530883120313ED
:1005D800D50083160313520883120313D40083161D
:1005E8000313510883120313CF0083160313500813
:1005F80083120313CE00831603134F0883120313C9
:10060800CD00831603134E0883120313CC00831600
:100618000313450883120313D300831603134408F6
:1006280083120313D20083160313430883120313A0
:10063800D10083160313420883120313D0000A164D
:100648008A11BC230A128A11831203134F08DB0094
:100658004E08DA004D08D9004C08D8000A168A114D
:100668005C270A128A11031C3A2B3B2B492B4B306F
:1006780083120313A0009130A1008A30A2000A124D
:100688008A11BE270A128A11AA2C8316031351084D
:1006980083120313CF008316031350088312031326
:1006A800CE00831603134F0883120313CD0083165D
:1006B80003134E0883120313CC0083160313450853
:1006C80083120313D30083160313440883120313FE
:1006D800D20083160313430883120313D100831631
:1006E8000313420883120313D0000A168A11BC238D
:1006F8000A128A11831203134F08E8004E08E70014
:100708004D08E6004C08E5008316031355088312CC
:100718000313D70083160313540883120313D60058
:1007280083160313530883120313D5008316031388
:10073800520883120313D400831603134908831243
:100748000313CF0083160313480883120313CE0044
:1007580083160313470883120313CD00831603136C
:10076800460883120313CC006808D3006708D20038
:100778006608D1006508D0000A168A11BC230A123F
:100788008A11831203134F08DB004E08DA004D0864
:10079800D9004C08D8000A168A115C270A128A1157
:1007A800031CD72BD82BE62B363083120313A0005B
:1007B8009130A1008A30A2000A128A11BE270A12BB
:1007C8008A11AA2C573083120313A0009130A1007C
:1007D8008A30A2000A128A11BE270A128A11AA2C8C
:1007E80008306A06031DF92BFA2B8D2C8316031388
:1007F800550883120313D700831603135408831272
:100808000313D60083160313530883120313D5006A
:1008180083160313520883120313D4003E30B50025
:10082800CC30B400CC30B300CD30B2008316031303
:10083800450883120313B90083160313440883126F
:100848000313B80083160313430883120313B70076
:1008580083160313420883120313B6000A128A157B
:10086800BE240A128A11831203133508CF003408F4
:10087800CE003308CD003208CC0083160313450898
:1008880083120313D300831603134408831203133C
:10089800D20083160313430883120313D10083166F
:1008A8000313420883120313D0000A168A11BC23CB
:1008B8000A128A11831203134F08DB004E08DA006C
:1008C8004D08D9004C08D8000A168A115C270A126C
:1008D8008A11031C702C712C7F2C36308312031361
:1008E800A0009130A1008A30A2000A128A11BE2706
:1008F8000A128A11AA2C573083120313A0009130D0
:10090800A1008A30A2000A128A11BE270A128A118F
:10091800AA2C09306A06031D922C932C9F2C363082
:10092800A0009130A1008A30A2000A128A11BE27C5
:100938000A128A11AA2C5130A0009130A1008A30E5
:10094800A2000A128A11BE270A128A11C630F800BC
:100958000A30F2000030F300831203136B08E00042
:10096800E1016008F4006108F5000A168A117D2586
:100978000A128A117208303E0A168A1165230A1271
:100988008A11C730F8000A30F2000030F3008312F1
:1009980003136B08E000E1016008F4006108F5004A
:1009A8000A168A1126250A128A117208303E0A167A
:1009B8008A1165230A128A11C830F8003A300A16DB
:1009C8008A1165230A128A11C930F8000A30F20028
:1009D8000030F300831203136C08E000E1016008A3
:1009E800F4006108F5000A168A117D250A128A1199
:1009F8007208303E0A168A1165230A128A11CA3013
:100A0800F8000A30F2000030F300831203136C0878
:100A1800E000E1016008F4006108F5000A168A1197
:100A280026250A128A117208303E0A168A11652391
:100A38000A128A11831203136B08031D242D252D16
:100A4800652D6C08031D292D2A2D652D0A168A117E
:100A580041230A128A1183120313071187140030E5
:100A6800A0009030A1008030A2000A128A11BE278F
:100A78000A128A11503083120313A0009030A1008B
:100A8800C030A2000A128A11BE270A128A11333016
:100A980083120313E200BB30E100DF30E000E00B1B
:100AA800532DE10B532DE20B532D831203138710A3
:100AB8000130ED001130FB000A168A1141230A1299
:100AC8008A110800831203132308F2008030F2050C
:100AD8002308A8002807F400A21F732D742D752D74
:100AE800741474080319792D7A2D8A2D740A031D3C
:100AF8007E2D7F2D872D0030A3000030A20000300E
:100B0800A1000030A000A217A301922D0030A3007D
:100B18000030A2000030A1000030A0002708F30038
:100B28008030F3057308720603199B2D9C2D9D2DAB
:100B380072172708A8002807F300A61FA42DA52DC3
:100B4800A62D731473080319AA2DAB2DBB2D730A98
:100B5800031DAF2DB02DB82D0030A7000030A60022
:100B68000030A5000030A400A617A701C32D00304F
:100B7800A7000030A6000030A5000030A4007408CB
:100B880073020318C82DC92DED2D721FCC2DCD2D44
:100B9800CF2D8030F2067408F5007308F40075084C
:100BA800F3002008F5002408A0007508A400210817
:100BB800F5002508A1007508A5002208F5002608FB
:100BC800A2007508A6002308F5002708A3007508E9
:100BD800A700F5017308A800A9012908AB0074084B
:100BE8002802AA00031CAB032B08803AFF008030C0
:100BF8007F02031D012E1A302A02031C042E052E23
:100C08003E2E831203132308220421042004031D0B
:100C18000E2E102E0130112E0030F5000030A300EA
:100C28000030A2000030A1000030A0007308F400DA
:100C3800442E751C202E212E2A2E7508831203138C
:100C4800A8000310280C0138F5002C2E0310F50C11
:100C580083120313201C312E322E332EF517013048
:100C6800A800230DA30CA20CA10CA00CA80B352ED8
:100C78000130F40773087402031C432E442E1D2E02
:100C8800721B472E482E932E7408031D4C2E4D2E92
:100C9800582E003083120313A3000030A200003046
:100CA800A1000030A000BD2F831203132408A00761
:100CB800250803110318013E0319632EA10726080E
:100CC80003110318013E03196A2EA207270803110E
:100CD8000318013E0319712EA307231C742E752EC9
:100CE800492F751C782E792E802E7508A8000310C0
:100CF800280C0138F500822E0310F50C201C852ED7
:100D0800862E872EF5170130A800230DA30CA20C00
:100D1800A10CA00CA80B892E0130F407492F8312CF
:100D280003132308803AFF002708803A7F02031D37
:100D3800A72E26082202031DA72E25082102031D1F
:100D4800A72E240820020318AA2EAB2E022FFF304C
:100D5800A800FF30A900FF30AA00FF30AB0024082C
:100D6800AC002508AD002608AE002708AF00200813
:100D7800AC022108031C210FC22EC32EAD0222088B
:100D8800031C220FC82EC92EAE022308031C230FF2
:100D9800CE2ECF2EAF022C08A8072D0803182D0F32
:100DA800D62ED72EA9072E0803182E0FDC2EDD2EDF
:100DB800AA072F0803182F0AAB072B08A3002A0835
:100DC800A2002908A1002808A0008030F2067503B7
:100DD800FF3AF5007508031DF22EF32E102F01308F
:100DE800A007003003180130A107003003180130B4
:100DF800A207003003180130A307102F2408A0020F
:100E08002508031C250FA1022608031C260FA20291
:100E18002708031C270FA302230822042104200407
:100E2800031D172F182F452F7508031D1C2F1D2F65
:100E3800452F0030A3000030A2000030A100003090
:100E4800A000BD2F0130A8000310A00DA10DA20D18
:100E5800A30DA80B282FF51F322F332F342F201462
:100E6800751C372F382F3C2F0314750DF5003E2FB6
:100E78000310F50D74080319422F432F452F013035
:100E8800F402A21F482F492F262FF301F51F4D2FDB
:100E98004E2F5C2F75087F390319532F542F572F66
:100EA8000130F3005C2F201C5A2F5B2F5C2F542F2E
:100EB80073080319602F612F932F0130A0070030AA
:100EC80003180130A107003003180130A2070030D1
:100ED80003180130A307231C722F732F932F2008A8
:100EE800A8002108A9002208AA002308AB000130A5
:100EF800AC002B0DAB0CAA0CA90CA80CAC0B7D2FCD
:100F08002B08A3002A08A2002908A1002808A0008D
:100F1800740A0319902F912F932F0130F407740A44
:100F28000319972F982F9D2F7408031D9C2F9D2F11
:100F3800AB2F0030A3000030A2000030A100003029
:100F4800A0007408031DA92FAA2FAB2FF201741C4F
:100F5800AE2FAF2FB12FA217B32F7F30A205740881
:100F6800A8000310280CA300F21FBB2FBC2FBD2F15
:100F7800A3170800F2018312031322080A168A1124
:100F88007A230A128A11E02FF201F20A2108FF00DF
:100F9800200884000A168A1185210A128A110A1665
:100FA8008A117A230A128A11013083120313A007C7
:100FB8000318A10A0030A107831203132108FF00B8
:100FC800200884000A168A1185210A128A11003A1B
:100FD800031DEF2FF02FC82F0800831203131211DF
:100FE800831603138C14831203138C10FA308316A0
:080FF80003139200080001340C
:101004000A168A1136230A128A150A168A11282307
:101014000A128A150A128A11F1270A128A158B17E5
:101024000B178316031387100711831203138710FA
:10103400071108000310740D750DF7007708031DE0
:10104400242825282E280030F5000030F400003034
:10105400F3000030F2009128720883120313A000F9
:101064007308A1007408A2007508A3001F300310C0
:10107400A30CA20CA10CA00CFF3E031D39282008D0
:10108400F600F417FF30F205FF30F305FF30F405E6
:101094000030F5059630F702F71F512852286A28C8
:1010A4007708803A973E0318582859285A28252843
:1010B40001300310F50CF40CF30CF20CFF3E031D8D
:1010C4005B280130F707031D682869285A288128FE
:1010D40020307702031C6F2870287C2825280130D3
:1010E400A0000310F20DF30DF40DF50DA00B732801
:1010F4000130F7027708031D8028812871287608BB
:101104000319852886289128F209F309F409F509B9
:10111400F20A0319F30A0319F40A0319F50A080079
:1011240083120313AC002C08031999289A28AE28BB
:10113400A71F9D289E28AE282409AE002509AF00CC
:101144002609B0002709B100AE0A0319AF0A031932
:10115400B00A0319B10AB6282708B1002608B0005E
:101164002508AF002408AE0027082604250424041B
:10117400031DBD28BE28C7280030A7000030A600E4
:101184000030A5000030A40047299630AD00D528D2
:101194000130AD0701300310B10CB00CAF0CAE0C34
:1011A400FF3E031DCD28FE303105031DDA28DB2860
:1011B400CA28F5280130AD070130AE070030031806
:1011C4000130AF07003003180130B00700300318B6
:1011D4000130B10701300310B10CB00CAF0CAE0CF0
:1011E400FF3E031DED28FF303105031DFA28FB28BF
:1011F400DC2807290130AD020130A8000310AE0D30
:10120400AF0DB00DB10DA80B0029B01B0A290B2995
:10121400112902302D02031810291129FC282D1838
:10122400142915291D29FF30AE05FF30AF057F3085
:10123400B005FF30B1050310AD0C2D08A800A901BD
:10124400AA01AB0118300310A80DA90DAA0DAB0D0E
:10125400FF3E031D25292808AE042908AF042A08E7
:10126400B0042B08B1042C08031939293A293F2961
:10127400A71F3D293E293F29B1173108A70030088F
:10128400A6002F08A5002E08A4000800831203134B
:10129400A70011307B06031D5029512958290A162D
:1012A4008A1141230A128A15FF30FB00373083125A
:1012B40003132706031D5F29602970290A168A1162
:1012C40041230A128A15013083120313EA070C30F2
:1012D4006A06031D6E296F297029EA012130A000D6
:1012E4009030A1008030A2000A128A11BE270A128F
:1012F4008A15C030F8002A300A168A1165230A12AA
:101304008A150A30831203136A0203188A298B2967
:10131400C9296A08A5002507A03E84008313000894
:10132400A000840A00088403A100C130A2000A12AC
:101334008A11BE270A128A15831203136A08A500AC
:101344002507A23E840083130008A000840A000835
:101354008403A1009130A2000A128A11BE270A1246
:101364008A15831203136A08A5002507A43E840086
:1013740083130008A000840A00088403A100D1306C
:10138400A2000A128A11BE270A128A154A2A0A30B2
:101394006A06031DCE29CF290B2A6A08A500250752
:1013A400A03E840083130008A000840A000884037C
:1013B400A100C130A2000A128A11BE270A128A159E
:1013C400831203136A08A5002507A23E8400831331
:1013D4000008A000840A00088403A1009130A20040
:1013E4000A128A11BE270A128A15831603132008CB
:1013F40083120313A000831603132108831203131B
:10140400A100D130A2000A128A11BE270A128A153D
:101414004A2A0B306A06031D102A112A4A2A6A082E
:10142400A5002507A03E840083130008A000840AB9
:1014340000088403A100C130A2000A128A11BE2749
:101444000A128A1583160313200883120313A000BB
:1014540083160313210883120313A1009130A20001
:101464000A128A11BE270A128A1583160313220848
:1014740083120313A0008316031323088312031398
:10148400A100D130A2000A128A11BE270A128A15BD
:1014940008000A128A1502200A128A155E30831285
:1014A4000313A0009030A1008130A2000A128A1117
:1014B400BE270A128A15253083120313A000913027
:1014C400A100C530A2000A128A11BE270A128A1589
:1014D400313083120313A0009030A1009130A20098
:1014E4000A128A11BE270A128A158C2AB83083166A
:1014F4000313DB000B30DC000130DB020030031C83
:10150400DC03DC025B0A031D8B2A5C0A031D8B2AA5
:101514008C2A7E2A01300A168A117B240A128A1523
:101524002F3A031D962A972A782A0A168A114123EC
:101534000A128A150A168A114D260A128A150130D2
:101544000A168A117B240A128A1583160313DF00F4
:10155400B830DD000B30DE000130DD020030031C4A
:10156400DE03DE025D0A031DBB2A5E0A031DBB2ADD
:10157400BC2AAE2A5F0A031DC02AC12ACD2A8312BF
:1015840003136D03031DC72AC82ACD2A0230ED00B8
:101594002230FB005D2B831603135F0A031DD32A3D
:1015A400D42A102B0230831203136D06031DDB2A89
:1015B400DC2A102B0330ED000A168A1141230A128B
:1015C4008A15863083120313A0009030A100803066
:1015D400A2000A128A11BE270A128A15CB3083127E
:1015E4000313A0009030A100C030A2000A128A1197
:1015F400BE270A128A15123083120313A0009130F9
:10160400A1009030A2000A128A11BE270A128A157C
:101614000A128A1571230A128A155D2B2F3083163C
:1016240003135F06031D172B182B252B443083123D
:1016340003136D06031D1F2B202B252B0430ED00F7
:10164400121507155D2B5D2B831603135F080A1211
:101654008A1548210A128A15A12A831603135F08E2
:101664000A168A11BD260A128A15A12A2F3083165A
:1016740003135F06031D3F2B402B472B04308312BB
:101684000313ED003330FB00A12A1F305F06031D56
:101694004C2B4D2B6D2B013083120313ED001130B5
:1016A400FB00A12A831603135F080A128A1145203E
:1016B4000A128A15A12A831203136D08013A031929
:1016C400262B033A03192F2B013A0319382B073A17
:1016D4000319542BA12AA12A0A128A110C28952C29
:1016E400EB012130EC00BD2CEB012930EC00BD2CCA
:1016F400EB012D30EC00BD2C6908003A0319762B60
:10170400013A0319722B033A0319762B013A031990
:101714007A2B073A03197A2BBD2CEB012B30EC0002
:10172400BD2CEB013230EC00BD2CEB013930EC0068
:10173400BD2C6908003A0319932B013A03198F2B26
:10174400033A0319932B013A0319972B073A031908
:10175400972BBD2CEB011A30EC00BD2CEB011F3094
:10176400EC00BD2C6908003A0319AC2B013A0319AB
:10177400AC2B033A0319AC2B013A0319B02B073AEB
:101784000319B02BBD2C0130EB001030EC00BD2C44
:101794006908003A0319C52B013A0319C52B033A0A
:1017A4000319C52B013A0319C52B073A0319C52B95
:1017B400BD2C0130EB002430EC00BD2C6908003A4C
:1017C4000319DB2B013A0319DB2B033A0319DB2B37
:1017D400013A0319DB2B073A0319DB2BBD2CEB0170
:1017E4001F30EC00EB012430EC00BD2C6908003AFA
:1017F4000319F12B013A0319F12B033A0319F12BC5
:10180400013A0319F42B073A0319F42BBD2CEB010D
:101814001D30EC00BD2C6908003A0319092C013A6B
:101824000319092C033A0319092C013A0319092C49
:10183400073A0319092CBD2CEB012E30EC00EB0107
:101844003530EC00BD2C0130EB00EC01BD2C6908F7
:10185400003A0319212C013A03191E2C033A0319E7
:10186400212C013A0319252C073A0319252CBD2CE8
:10187400EB011230EC00EB011430EC00BD2C6908D4
:10188400003A03193D2C013A03193A2C033A03197F
:101894003D2C013A03193D2C073A03193D2CBD2C6C
:1018A400EB010630EC00BD2C6908003A0319522CF8
:1018B400013A0319522C033A0319522C013A031921
:1018C400522C073A0319522CBD2CEB011030EC00BA
:1018D400BD2CEB011530EC00BD2C6908003A03194E
:1018E4006B2C013A0319672C033A03196B2C013A48
:1018F4000319AC2B073A0319AC2BBD2CEB01383080
:10190400EC00BD2C6908003A0319802C013A031934
:10191400802C033A0319802C013A0319802C073ACE
:101924000319802CBD2C831203136A08003A03198F
:101934007E2B013A03199B2B033A0319B42B013A6A
:101944000319CA2B073A0319E02B013A0319F82BA0
:10195400033A03190D2C013A0319292C0F3A0319E0
:10196400412C013A0319562C033A03196F2C013AFE
:101974000319842CBD2C0800831203133508BF00FF
:101984008030BF053508BA003A07C500B41FCB2C18
:10199400CC2CCD2C451445080319D12CD22CE12C88
:1019A400450A031DD62CD72CDF2C0030B50000309F
:1019B400B4000030B3000030B200B417E92C00309A
:1019C400B5000030B4000030B3000030B200390874
:1019D4008039BF063908BA003A07C000B81FF32C93
:1019E400F42CF52C401440080319F92CFA2C092D79
:1019F400400A031DFE2CFF2C072D0030B9000030D7
:101A0400B8000030B7000030B600B817112D003010
:101A1400B9000030B8000030B7000030B60040080C
:101A24000319152D162D1B2D4508031D1A2D1B2DCD
:101A3400242D0030B5000030B4000030B300003075
:101A4400B200FF2F3208F20038080A168A11052462
:101A54000A128A15730883120313CB007208CA0092
:101A64004A08BA00BB01BC01BD013D08C4003C08E2
:101A7400C3003B08C2003A08C1004B08BA00BB01CE
:101A8400BC01BD013D08C9003C08C8003B08C700B3
:101A94003A08C6003308F20037080A168A110524EA
:101AA4000A128A15730883120313CB007208CA0042
:101AB4004A08BA00BB01BC01BD013A08C1073B0892
:101AC40003110318013E0319682DC2073C080311D2
:101AD4000318013E03196F2DC3073D0803110318B2
:101AE400013E0319762DC4074B08BA00BB01BC01A3
:101AF400BD013A08C6073B0803110318013E031948
:101B0400842DC7073C0803110318013E03198B2DCC
:101B1400C8073D0803110318013E0319922DC90794
:101B24003408F20036080A168A1105240A128A15A6
:101B3400730883120313CB007208CA004A08BA0060
:101B4400BB01BC01BD013A08C1073B0803110318DE
:101B5400013E0319AE2DC2073C0803110318013ED0
:101B64000319B52DC3073D0803110318013E0319DA
:101B7400BC2DC4074B08BA00BB01BC01BD013A0827
:101B8400C6073B0803110318013E0319CA2DC707F2
:101B94003C0803110318013E0319D12DC8073D0861
:101BA40003110318013E0319D82DC9070830BA00E0
:101BB4000310C10DC20DC30DC40DBA0BDA2D3308C9
:101BC400F20036080A168A1105240A128A157308C7
:101BD40083120313CB007208CA004A08BA004B08E8
:101BE400BB00BC01BD013A08C1073B08031103183F
:101BF400013E0319FE2DC2073C0803110318013EE0
:101C04000319052EC3073D0803110318013E0319E8
:101C14000C2EC4073208F20037080A168A1105246C
:101C24000A128A15730883120313CB007208CA00C0
:101C34004A08BA004B08BB00BC01BD013A08C10701
:101C44003B0803110318013E0319292EC2073C085F
:101C540003110318013E0319302EC3073D08031175
:101C64000318013E0319372EC4070830BA000310C5
:101C7400C10DC20DC30DC40DBA0B392E3208F200CA
:101C840036080A168A1105240A128A157308831263
:101C94000313CB007208CA004A08BA004B08BB0001
:101CA400BC01BD013A08C1073B0803110318013EFA
:101CB40003195D2EC2073C0803110318013E0319E2
:101CC400642EC3073D0803110318013E03196B2E4C
:101CD400C4073308F20038080A168A1105240A12C8
:101CE4008A15730883120313CB007208CA004A08CA
:101CF400BA004B08BB00BC01BD013A08C6073B084B
:101D040003110318013E0319882EC7073C08031169
:101D14000318013E03198F2EC8073D080311031849
:101D2400013E0319962EC9073408F20037080A1633
:101D34008A1105240A128A15730883120313CB002F
:101D44007208CA004A08BA004B08BB00BC01BD01B6
:101D54003A08C6073B0803110318013E0319B32EC2
:101D6400C7073C0803110318013E0319BA2EC8071C
:101D74003D0803110318013E0319C12EC907340895
:101D8400F20038080A168A1105240A128A15730803
:101D940083120313CB007208CA004A08BA004B0826
:101DA400BB00BC01BD0108300310BA0DBB0DBC0D56
:101DB400BD0DFF3E031DD62E3A08C6073B0803118E
:101DC4000318013E0319E72EC7073C080311031843
:101DD400013E0319EE2EC8073D0803110318013E06
:101DE4000319F52EC9074108BA004208BB0043088D
:101DF400BC004408BD0018300310BD0CBC0CBB0C67
:101E0400BA0CFF3E031DFE2E3A08C6073B08031119
:101E14000318013E03190F2FC7073C0803110318C9
:101E2400013E0319162FC8073D0803110318013E8C
:101E340003191D2FC9070830BA000310C10DC20DC4
:101E4400C30DC40DBA0B1F2F45084007BA00BB01D0
:101E5400BB0D3A08823ECA003B080318013EFF3E10
:101E6400CB00512F0130BA000310C60DC70DC80DA9
:101E7400C90DBA0B362FC41F402F412F422F4614D1
:101E84000130BA000310C10DC20DC30DC40DBA0B4D
:101E9400442FFF30CA070318CB0AFF30CB07C81FF3
:101EA400542F552F342FC001C41F592F5A2F762F6A
:101EB400FF304105BA00FF304205BB00FF30430547
:101EC400BC007F304405BD003D083C043B043A049B
:101ED40003196D2F6E2F712F0130C000762F461C11
:101EE400742F752F762F6E2F400803197A2F7B2FAE
:101EF400AC2F0130C607003003180130C70700308B
:101F040003180130C807003003180130C907491C01
:101F14008C2F8D2FAC2F4608BA004708BB00480809
:101F2400BC004908BD000130BE003D0DBD0CBC0C19
:101F3400BB0CBA0CBE0B972F3D08C9003C08C80067
:101F44003B08C7003A08C6000130CA070318CB0A89
:101F54000030CB074B08803AFF0080307F02031D1E
:101F6400B52FFF304A02031CB82FB92FC42F7F307E
:101F740083120313C9008030C8000030C70000304A
:101F8400C600F52F831203134B08803AFF008030FC
:101F94007F02031DCF2F01304A020318D22FD32F03
:101FA400DF2F003083120313C9000030C800003053
:101FB400C7000030C600BF01F52F831203134A087F
:101FC400C500FF30C605FF30C7057F30C8050030A7
:101FD400C905451CEE2FEF2FF02FC8174508BA008E
:101FE40003103A0CC9003F08C9044908B500480861
:101FF400B4004708B3004608B200080050347234F5
:102004006F346734723461346D34203463346F3424
:102014006D3470346C34653474346534003477341E
:1020240061347334683469346E3467345F346D34C6
:1020340061346334683469346E346534003477341D
:1020440061347334683469346E34673420347034E2
:1020540072346F346734723461346D3400345734FD
:1020640061347334683469346E34673420344D34E5
:1020740061346334683469346E3465340034503404
:102084006C347334203463346C346F347334653497
:10209400203464346F346F34723400345234653411
:1020A4006D346F3476346534203463346C346F3477
:1020B4007434683473340034503472346534733493
:1020C400733420344B3465347934353420347434E7
:1020D4006F340034573441345434453452345F340B
:1020E4004C344534563445344C343A340034443456
:1020F4006F346F34723420346934733420346F3461
:10210400703465346E34003450347234653473344E
:102114007334203453347734693474346334683416
:10212400003470346F3477346534723469346E3407
:10213400673420346F346E34003441347134753470
:1021440061342034733474346F347234653400343D
:1021540053347434613469346E34203477346134E4
:10216400733468340034453463346F3463346F3407
:10217400743474346F346E347334003442346534DC
:10218400643420347334683465346534743473349B
:1021940000345334573435343A34203453345434BB
:1021A4004134523454340034463475346E34633418
:1021B400743469346F346E343A34003453345734DD
:1021C40036343A345034413455345334453400347D
:1021D4005334573435343A34533454344134523408
:1021E40054340034443465346434693463346134BD
:1021F400743465347334003457346134733468345C
:1022040020346F346E346C3479340034523469348D
:102214006E34733465342B3444347234793400347A
:102224005334573436343A342034533454344F34DA
:102234005034003444347234793420346F346E347E
:102244006C347934003450346F34773465347234F8
:1022540020344F344E34003457346F346F346C347C
:1022640065346E3473340034523469346E347334E8
:102274006534203400344D34653464346934753441
:102284006D340034573468346934743465347334C9
:102294000034573461347334683420340034773470
:1022A4006134733468342034003453347034693402
:1022B4006E34203400344434613469346C347934F9
:1022C4000034483465346134763479340034543419
:1022D40069346D3465340034503472346F34673487
:1022E4000034483469346734683400344134753414
:1022F40074346F3400344C346F34773400346D34B8
:10230400613478340034FF1B8F2983137F188317BB
:102314000008840A0319FF0A08007F087F398A002D
:0A2324000408840A0319FF0A82006E
:10264A000134013411348316031306083F38860017
:10265A00080064008001840A040603190034040691
:10266A002F2B831603138801091189100A168A1160
:10267A00CF240A168A110800F20101300A168A11BB
:10268A007A230A168A110430F7003D30F600F60B59
:10269A004C2BF70B4C2B512B08007E088A007F0825
:1026AA0082000A168A1152230A168A118000840AA5
:1026BA0004087D0603190034FF0A0319FE0A562B83
:1026CA0083120313A400F20178080A168A117A23E6
:1026DA000A168A11F201F20A8312031324080A164F
:1026EA008A117A230A168A110800F50072187E2BBD
:1026FA00822B831203130915852B831203130911E5
:10270A00750888008914A630F300F30B8A2B0000A1
:10271A008312031389101B30F4009E30F300F30B6D
:10272A00942BF40B942B000008005D34913463342D
:10273A009134F434903444349134AA349034B53416
:10274A0090342E349134C0349034083491341C348B
:10275A009134FE3490349F349034783491347D34FB
:10276A0091343D34913473349134813491348030CE
:10277A0083120313CF065308A3005208A20051087C
:10278A00A1005008A0004F08A7004E08A6004D0857
:10279A00A5004C08A4000A128A1166250A168A1195
:1027AA00831203132308CF002208CE002108CD008C
:1027BA002008CC000800F601F701721CE52BE62B75
:1027CA00EC2B7408F6070318F70A7508F7070130A7
:1027DA000310F40DF50DFF3E031DED2B0130031020
:1027EA00F30CF20CFF3E031DF42B72087304031D55
:1027FA00FF2B002CE22B7708F3007608F200080082
:10280A0083120313A400A001A1017208F400F501C8
:10281A007408A2007508A300241C142C152C1B2C68
:10282A002208A0070318A10A2308A10701300310F0
:10283A00A20DA30DFF3E031D1C2C0310A40C24089B
:10284A00031D282C292C112C2108F3002008F20042
:10285A000800831203138C1C332C342C742C013083
:10286A0083160313D607003003180130D707003048
:10287A0003180130D807003003180130D907203077
:10288A0056064E300319570658045904031D4E2C98
:10289A004F2C712C831203136C080319552C562CD8
:1028AA00592C0130EC02672C6C08031D5D2C5E2C40
:1028BA00672C6B080319622C632C672C0130EB021E
:1028CA003C30EC00003083160313D9000030D800E6
:1028DA000030D7000030D600831203138C10710821
:1028EA008A00700E8300FE0E7E0E09008312031307
:1028FA000608F2003F30F2053F3072060319862CB3
:10290A00872C932C7A0803198B2C8C2C932CFA0184
:10291A00F901720883160313DA00CD2C3F307206D0
:10292A00031D982C992CAA2C7A08031D9D2C9E2CE9
:10293A00AA2C0130FA001E3079020318A52CA62C05
:10294A00CD2C831603135A08CE2C7A08031DAE2CFD
:10295A00AF2CB82C1F3079020318B42CB52CB82C24
:10296A000130F907CD2C7A08031DBC2CBD2CCD2CC7
:10297A001F307906031DC22CC32CCD2C37307206AA
:10298A00031DC82CC92CCD2C0130F907FF30CE2CE1
:10299A003F300800C330F700CD30F600F60BD32CD9
:1029AA00F70BD32CF20133300A168A117A230A164E
:1029BA008A111B30F7009E30F600F60BE22CF70B5B
:1029CA00E22C0000F20133300A168A117A230A1621
:1029DA008A11A630F600F60BF02C0000F201333013
:1029EA000A168A117A230A168A11FB2CFC2C00007B
:1029FA00F2013C300A168A117A230A168A11A63085
:102A0A00F600F60B062D0000F20101300A168A11B3
:102A1A007A230A168A110430F7003D30F600F60BC5
:102A2A00142DF70B142D192DF2010C300A168A11E8
:102A3A007A230A168A11A630F600F60B222D000018
:102A4A000800F701F51F2A2D2B2D322DF409F5095F
:102A5A00F40A0319F50A0130F700F31F352D362D54
:102A6A003B2DF209F309F20A0319F30A72087304F7
:102A7A000319402D412D6E2D0130F6004D2D0130E8
:102A8A000310F20DF30DFF3E031D452D0130F6072D
:102A9A00F31F502D512D442D73087502031D572D18
:102AAA0072087402031C5A2D5B2D612D7208F40200
:102ABA007308031CF503F50201300310F30CF20C42
:102ACA00FF3E031D622D0130F602031D6D2D6E2D92
:102ADA00512D77080319722D732D782DF409F509F4
:102AEA00F40A0319F50A7508F3007408F2000800DD
:102AFA0083120313A101F31F832D842D8B2DF20959
:102B0A00F309F20A0319F30A0130A100F51F8E2D09
:102B1A008F2D962DF409F509F40A0319F50A0130E7
:102B2A00A106A201A3017208730403199D2D9E2D0B
:102B3A00D32D0130A000AA2D01300310F20DF30DA0
:102B4A00FF3E031DA22D0130A007F31FAD2DAE2DB0
:102B5A00A12D01300310A20DA30DFF3E031DAF2DC1
:102B6A0073087502031DBB2D72087402031CBE2D67
:102B7A00BF2DC62D7208F4027308031CF503F50273
:102B8A00221401300310F30CF20CFF3E031DC72D73
:102B9A000130A002031DD22DD32DAE2D2108031919
:102BAA00D72DD82DDD2DA209A309A20A0319A30A3C
:102BBA002308F3002208F200080083120313061800
:102BCA00E72DE82D4C2E0711121187140A168A11C7
:102BDA0041230A168A11793083120313A000903018
:102BEA00A1008030A2000A128A11BE270A168A1191
:102BFA00413083120313A0009030A100C030A2001C
:102C0A000A128A11BE270A168A1183120313061C96
:102C1A000F2E102E0A2E0715121587100A168A1162
:102C2A0041230A168A11D63083120313A00090306A
:102C3A00A1008030A2000A128A11BE270A168A1140
:102C4A00693083120313A0009130A100C030A200A2
:102C5A000A128A11BE270A168A11EA30831203134E
:102C6A00A0009030A1009030A2000A128A11BE275B
:102C7A000A168A11E03083120313A0009030A100D3
:102C8A00D030A2000A128A11BE270A168A11080039
:102C9A0083120313A8012808803EF800FF300A16A1
:102CAA008A1165230A168A11033083120313A700B7
:102CBA008A30A6005530A500A50B612EA60B612E01
:102CCA00A70B612E013083120313A80710302802C4
:102CDA00031C702E712E502E9330A0009030A1004C
:102CEA00C330A2000A128A11BE270A168A111130AD
:102CFA0083120313A0009030A1009130A2000A129F
:102D0A008A11BE270A168A1183120313A9012908F8
:102D1A00D03EF800FF300A168A1165230A168A1176
:102D2A00033083120313A7008A30A6005530A5008A
:102D3A00A50B9D2EA60B9D2EA70B9D2E013083124F
:102D4A000313A90710302902031CAC2EAD2E8C2EBA
:102D5A000D3083120313A700AF30A600B530A500CB
:102D6A00A50BB52EA60BB52EA70BB52EBC2E0800AB
:102D7A0083120313A70022307B06031DC52EC62E1D
:102D8A00CD2E0A168A1141230A168A11FF30FB003A
:102D9A003730831203132706031DD42ED52EE52EB2
:102DAA000A168A1141230A168A1101308312031363
:102DBA00E90705306906031DE32EE42EE52EE90135
:102DCA006C30A0009030A1008030A2000A128A1153
:102DDA00BE270A168A11C030F8002A300A168A114C
:102DEA0065230A168A11831203136908A5002507A9
:102DFA00B83E840083130008A000840A00088403F4
:102E0A00A100C230A2000A128A11BE270A168A112C
:102E1A000530F2000030F300831203136908013E03
:102E2A00F400003003180130F5000A168A1126252D
:102E3A000A168A11720883120313A5002507B83EE1
:102E4A00840083130008A000840A00088403A100F8
:102E5A009230A2000A128A11BE270A168A11053078
:102E6A00F2000030F300831203136908023EF400F3
:102E7A00003003180130F5000A168A1126250A16B1
:102E8A008A11720883120313A5002507B83E84002D
:102E9A0083130008A000840A00088403A100D2302A
:102EAA00A2000A128A11BE270A168A1108000030E7
:102EBA00831203135405DC0000305505DD00803011
:102ECA005605DE007F305705DF005F085E045D04AB
:102EDA005C04031D712F722F7A2F0030D700003047
:102EEA00D6000030D5000030D40000305805DC0090
:102EFA0000305905DD0080305A05DE007F305B0561
:102F0A00DF005F085E045D045C04031D8D2F8E2FB5
:102F1A00962F0030DB000030DA000030D900003094
:102F2A00D800D71F992F9A2FBE2F0030DC0000300F
:102F3A00DD000030DE008030DF005408DC02550876
:102F4A00031C550FA92FAA2FDD025608031C560F82
:102F5A00AF2FB02FDE025708031C570FB52FB62F1D
:102F6A00DF025F08D7005E08D6005D08D5005C085E
:102F7A00D400DB1FC12FC22FE62F0030DC00003047
:102F8A00DD000030DE008030DF005808DC0259081E
:102F9A00031C590FD12FD22FDD025A08031C5A0FD6
:102FAA00D72FD82FDE025B08031C5B0FDD2FDE2F25
:102FBA00DF025F08DB005E08DA005D08D9005C0802
:102FCA00D8008030D7068030DB065B085702031D25
:102FDA00F82F5A085602031DF82F59085502031DE7
:102FEA00F82F580854020318FB2FFC2FFE2F03104A
:062FFA00FF2F0314080084
:02400E00FB3F76
:00000001FF
